:020000040800F2
:1000000070A6012439030008A9110008A5110008F1
:10001000A7110008911100089112000800000000CB
:10002000000000000000000000000000AD1100080A
:100030009311000800000000AB110008AF11000888
:100040005303000853030008530300085303000838
:100050005303000853030008530300085303000828
:100060005303000853030008530300085303000818
:100070005303000853030008530300085303000808
:1000800053030008530300085303000853030008F8
:1000900053030008530300085303000853030008E8
:1000A00053030008530300085303000853030008D8
:1000B00053030008530300085303000853030008C8
:1000C00053030008530300085303000853030008B8
:1000D00053030008530300085303000853030008A8
:1000E00053030008530300080000000053030008F6
:1000F0005303000853030008530300085303000888
:100100005303000853030008530300085303000877
:100110005303000853030008530300085303000867
:100120005303000853030008530300085303000857
:100130005303000853030008530300085303000847
:1001400000000000000000000000000000000000AF
:100150005303000853030008530300085303000827
:100160005303000853030008530300085303000817
:100170005303000853030008530300080000000065
:1001800053030008530300085303000853030008F7
:1001900053030008530300085303000853030008E7
:1001A00053030008530300085303000853030008D7
:1001B00053030008530300085303000853030008C7
:1001C00053030008530300085303000853030008B7
:1001D00053030008530300085303000853030008A7
:1001E0005303000853030008530300085303000897
:1001F0005303000853030008530300085303000887
:100200005303000853030008530300085303000876
:100210005303000853030008530300085303000866
:1002200053030008530300085303000800000000B4
:1002300053030008530300080000000053030008A4
:100240005303000853030008530300085303000836
:100250005303000853030008530300085303000826
:100260005303000853030008530300085303000816
:100270005303000853030008530300080000000064
:100280005303000853030008530300080000000054
:10029000000000005303000800F002F800F03CF8F2
:1002A0000AA090E8000C82448344AAF10107DA45D1
:1002B00001D100F031F8AFF2090EBAE80F0013F0E7
:1002C000010F18BFFB1A43F00103184734A20000C6
:1002D00054A20000103A24BF78C878C1FAD8520757
:1002E00024BF30C830C144BF04680C6070470000B0
:1002F0000023002400250026103A28BF78C1FBD82F
:10030000520728BF30C148BF0B6070471FB501F0CE
:10031000D7F81FBD10B510BD00F08AF81146FFF7E1
:10032000F5FF00F0B7FF00F0A8F803B4FFF7F2FF05
:1003300003BC00F0AFF800000948804709480047B7
:10034000FEE7FEE7FEE7FEE7FEE7FEE7FEE7FEE785
:10035000FEE7FEE704480549054A064B70470000E2
:10036000B51100089902000870A0012470A60124AC
:1003700070A2012470A2012410B5203AC0F00B80B5
:10038000B1E81850203AA0E81850B1E81850A0E899
:100390001850BFF4F5AF5FEA027C24BFB1E81850F3
:1003A000A0E8185044BF18C918C0BDE810405FEA63
:1003B000827C24BF51F8043B40F8043B08BF7047DF
:1003C000D20728BF31F8023B48BF11F8012B28BFE4
:1003D00020F8023B48BF00F8012B70474FF00002A5
:1003E00000B5134694469646203922BFA0E80C502B
:1003F000A0E80C50B1F12001BFF4F7AF090728BF06
:10040000A0E80C5048BF0CC05DF804EB890028BF81
:1004100040F8042B08BF704748BF20F8022B11F0AA
:10042000804F18BF00F8012B704770477047704726
:10043000754600F02BF8AE4605006946534620F09D
:100440000700854618B020B5FFF784FFBDE82040BF
:100450004FF000064FF000074FF000084FF0000B80
:1004600021F00701AC46ACE8C009ACE8C009ACE833
:10047000C009ACE8C0098D46704710B50446AFF31B
:1004800000802046BDE81040FFF74FBF004870478E
:100490000CA0012401491820ABBEFEE72600020093
:1004A000704700002DE9F04F81B001266FF0010484
:1004B0004FEA510E06EB510704EB510800974FEA43
:1004C00042090024002500BFADB26600AC422BD229
:1004D00050F82670EA0050F83510043240F8261023
:1004E00046F0010140F8357050F821A0875840F8D7
:1004F000217040F802A0009AA118AF1850F831A05E
:100500004FEAC10B50F837204FEAC70C40F83120B2
:1005100040F837A00BF104010CF1040750F801A0DA
:10052000C259425040F807A005EB0E0100EB8602CD
:1005300050F831709668CD00D2F80CC097602F1D2E
:1005400040F83160A11CC5598CB2D5601D88444566
:100550004B4440F807C0B7D901B0BDE8F08F70B583
:100560000446807825880E46A3890128626806D152
:1005700094ED040A3046294600F01AFC03E03046A8
:10058000294600F081FAE078012807D12188304619
:10059000E289A368BDE87040FFF784BF70BD00002A
:1005A00042F2005C0180C0F6000CC0F804C0FF29D4
:1005B000827041F2FC42C370C0F600024FF0FF03AC
:1005C0000DDDB1F5807F13D0B1F5805F15D0B1F5A9
:1005D000806F22D106329FED160A042117E0102900
:1005E0000FD0402919D17E329FED0F0A40210EE035
:1005F0001E329FED0E0A102109E09FED090A01212C
:1006000005E002F5FF729FED070A4FF480710023A9
:100610008181C181826080ED040A58B2704700BFB9
:10062000000080390000803D0000803C0000803BDD
:100630000000803A9FED201AB5EE002A00EE012A54
:100640009FED1E1ABDEEC20AB5EEC02AF1EE10FAF9
:1006500010EE100AB8BF013800EE100A0020B8EE04
:10066000C00A32EE400A9FED162A20EE010ABCEEC7
:10067000C01A11EE101A30EE021AB0EB512F18BF4B
:10068000002102EE101A41F6FC4000FE010AC0F6FD
:100690000000B8EE422A00EB810090ED011A30EE26
:1006A000420AB7EE002A32EE402A20EE010A90ED0F
:1006B000001A02EE010A704783F9223E000000444E
:1006C000000000C42DE9F04F81B02DED048B88B0FF
:1006D00006880027B7EBD30FD0F804C0A6F10105B8
:1006E00084680CEB850B0395CDE9016300F05E8116
:1006F000F008079026F0070004EB8000069046F013
:10070000070006F007050CEB800AA7EBD600059062
:1007100068424FEAD30904909FEDD10A604600BFBA
:100720000B68CBF800304B68CBF804308B68CBF803
:100730000830CB68CBF80C300B69CBF810304B6924
:10074000CBF814308B69CBF81830CB69CBF81C3060
:10075000079BD0ED006AD0ED015AD0ED027AD0EDC2
:10076000031AD0ED043AD0ED052A002BD0ED064A4D
:1007700000F0C2804FF00008DDF814E0B0EE401A3F
:10078000B0EE402AB0EE403AB0EE404AB0EE405AE9
:10079000B0EE406AB0EE407AF0EE400A04EB080694
:1007A00000EB080396ED009A93ED078A46EE890A5E
:1007B0001EF1010E05EE897A08F1200807EE896A1C
:1007C00001EE895A03EE894A02EE893A04EE892A3B
:1007D00009EE081A96ED019AD3ED086A45EE890AEA
:1007E00007EE897A01EE896A03EE895A02EE894A98
:1007F00004EE893A08EE092A09EE261A96ED029AC5
:10080000D3ED095A47EE890A01EE897A03EE896A27
:1008100002EE895A04EE894A08EE093A06EE892A60
:1008200009EE251A96ED039AD3ED0A7A41EE890A6C
:1008300003EE897A02EE896A04EE895A08EE094AC3
:1008400006EE893A05EE892A09EE271A96ED049AF2
:10085000D3ED0B1A43EE890A02EE897A04EE896A17
:1008600008EE095A06EE894A05EE893A07EE892A0A
:1008700009EE211A96ED059AD3ED0C3A42EE890A5B
:1008800004EE897A08EE096A06EE895A05EE894A6D
:1008900007EE893A01EE892A09EE231A96ED069AA7
:1008A000D3ED0D2A44EE890A08EE097A06EE896A2C
:1008B00005EE895A07EE894A01EE893A03EE892A44
:1008C00009EE221A96ED079AD3ED0E4A48EE090A70
:1008D00006EE897A05EE896A07EE895A01EE894AA1
:1008E00003EE893A02EE892A09EE241A7FF456AF04
:1008F0005646069B13E000BF00F11C06F0EE400ACE
:10090000B0EE407AB0EE406AB0EE405AB0EE404AE7
:10091000B0EE403AB0EE402AB0EE401A2346203105
:10092000002D0BF1200B26D0049F00BF93ED008A11
:1009300046EE880AF0EE656A043305EE887AF0EE3A
:10094000675A013707EE886AF0EE617A01EE885A3D
:10095000F0EE631A03EE884AF0EE623AF0EE642A93
:1009600004EE882AD6ED004A03EE883A06F1040622
:1009700008EE241ADAD102F12003C2ED000A82ED5A
:10098000017A203082ED026AB9F1010982ED035A41
:100990000AF1200A82ED044A82ED053A82ED062A28
:1009A00082ED071A1A467FF4BBAE01E0604613469B
:1009B000029A12F0070825D0019AC2F1000E9FEDAD
:1009C000280A00BF0E687746CBF800600026B0EE1C
:1009D000401A00BF8519A21995ED002A92ED003A40
:1009E00002EE031A013706F10406F3D11A1D83ED56
:1009F000001A04310BF1040BB8F1010800F10400F6
:100A00001346DFD10021039FB1EB970F18D0B9082F
:100A1000494200BF02680131CCF800204268CCF89E
:100A2000042000F110028368CCF808300CF11003A8
:100A3000C068CCF80C009C461046EBD110469C4692
:100A400017F0030106D0494250F8042B01314CF84D
:100A5000042BF9D108B0BDEC048B01B0BDE8F08FD8
:100A600000000000B0B5DDF810C0054601EB0C0039
:100A700029806FF00301AA6001EB800118461C4633
:100A8000FFF7ACFC6C60B0BD2DE9F04F88B08C086E
:100A9000059204EB4407019026010094151D07966A
:100AA00000220494FF000393A2EB910603EB4302A0
:100AB00004304FEAC40E4FEA031A4FEAC30B4FEA61
:100AC000C2093A462C462F46079B00EB0E0800EB66
:100AD000030C831810ED010A90ED001A18ED012A9D
:100AE00098ED003A1CED014A9CED005A13ED016AA5
:100AF00093ED007A70EE040A013672EE061A71EE7A
:100B0000052A73EE073A32EE462A31EE451A33EEE5
:100B1000473A30EEA15A32EEA37A30EE440A72EE32
:100B2000E32A71EE423A17ED014A97ED006A00EDB3
:100B3000015A70EEE10A80ED007A70EE031A14EDAE
:100B4000015A23EE857A00F1080031EE021A57446B
:100B500094ED002A30EE430A5C4423EE823A01EE23
:100B6000C27A22EE862A01EE853A15ED015AD5EDBC
:100B7000001A64EE222A4D4400EE842A21EE214A16
:100B800021EE051A40EEC62A08ED012A00EE054ABC
:100B900000EE611AC8ED002A0CED013A8CED007AE6
:100BA00003ED014A83ED001A8ED11429C0F0B48000
:100BB000049D00BF0398AA0880000292039080B2AF
:100BC000EE0007904FF0FF3000EB9500069002EB2F
:100BD0004200C700D000041D4FEA021C019A4FF0EA
:100BE000000900239046059A02EBC3004FEAC30EAA
:100BF00090ED000A0EF10400104490ED001A02EB93
:100C000003104FEA031E90ED002A0EF10400104479
:100C100090ED003A03EB430002EBC00EC00004303D
:100C200010449EED004A424690ED005A4046C846A8
:100C300000EB0C0A90ED006A9AED007A00EB040BD1
:100C400076EE470A00EB070E36EE076A1BED017AD7
:100C5000DEED001A77EE612AA84437EE217A884546
:100C6000D0ED011ADBED003ADAED014ADEED015A72
:100C700071EEE46A73EEE57A71EEA41A73EEA53AAA
:100C800070EEA74A70EEE70A71EEE37A76EEE25A6A
:100C900076EEA22A76EE476A36EE076A31EEA37A3E
:100CA00063EE271A62EE273A80ED006A60EE247A3E
:100CB00080ED017A24EE206A304424EE227A41EE5F
:100CC000257A60EE255A42EE261A43EE663A41EE48
:100CD000645A05EE226A4BED011A05EE607ACBEDFF
:100CE000003ACAED007ACAED015A8EED006A8EED27
:100CF000017A9DD3079809F10109034406988145BB
:100D000002F108027FF66EAF04981328029D4FEAA5
:100D1000900004903FF64EAF00984042019900BF0A
:100D200091ED000A91ED011A91ED022A91ED033A3D
:100D300091ED044A91ED055A91ED066A91ED077A1D
:100D400070EE040A013030EE440A31EE054A31EE0D
:100D5000451A32EE065A73EE071A32EE462A33EE81
:100D6000473A30EE856A34EE217A30EEC55A34EED9
:100D7000614A81ED006A30EE036A81ED017A31EE5D
:100D8000427A81ED025A30EE430A81ED034A31EE98
:100D9000021A81ED046A81ED057A81ED060A81ED82
:100DA000071A01F12001BBD108B0BDE8F08F0000A7
:100DB0002DE9F04F81B02DED048B88B08C080592A1
:100DC00004EB4407019026010094151D07960022AC
:100DD0000494FF000393A2EB910603EB430204305B
:100DE0004FEAC40E4FEA031A4FEAC30B4FEAC20997
:100DF0003A462C462F4600BF079B00EB0E080344E3
:100E000000EB020C10ED011A90ED002A13ED013AEF
:100E100093ED004A18ED015A98ED006A1CED017A35
:100E2000DCED000A71EE031A013675EE072A72EE48
:100E3000043A76EE204A31EE431A32EE442A36EE78
:100E4000604A31EEA26A73EEA40A35EE475A71EE9B
:100E5000E21A71EE442A17ED013A97ED007A00ED9F
:100E6000016A73EEE43AC0ED000A72EE054A94EDB1
:100E7000006A62EE860A00F1080031EE041A574457
:100E800014ED014A32EE452A5C4422EE845A44EEC7
:100E9000840A21EE834A04EEC65A15ED016AD5EDA7
:100EA000002A61EE871A4D4403EEC74A21EE067A06
:100EB00021EE221A43EE231A08ED014A02EE627A6D
:100EC00002EE061AC8ED001A03ED015AC3ED000A3E
:100ED0000CED017A8CED001A8ED11429C0F0B4808B
:100EE000049D00BF0398AA0880000292039080B27C
:100EF000EE0007904FF0FF3000EB9500069002EBFC
:100F00004200C700D000041D4FEA021C019A4FF0B6
:100F1000000900239046059A02EBC3004FEAC30E76
:100F200090ED001A0EF10400104490ED002A02EB3F
:100F300003104FEA031E90ED003A0EF10400104436
:100F400090ED004A03EB430002EBC00EC0000430FA
:100F500010449EED005A424690ED006A4046C84655
:100F600000EB0C0A90ED007ADAED000A00EB040BBE
:100F700077EE601A00EB070E37EE207A5BED010A80
:100F8000DEED002A70EEE23AA84470EEA20A88452F
:100F9000D0ED012ADBED004ADAED015ADEED016AFF
:100FA00072EEE57A34EEE68A72EEA52A74EEA64A6F
:100FB00071EEC85A71EE881A32EEE48A77EEA36AAF
:100FC00077EEE33A77EE607A37EE207A23EE089AEE
:100FD00063EE270A72EEA42A80ED007A04EE279AC7
:100FE00061EE254A62EE255AC0ED012A65EE217AAE
:100FF000304426EE217A44EE480A42EE664A41EE3B
:10100000265A46EE637A4BED010A05EE237A8BED04
:10101000009ACAED004ACAED015ACEED007A8EED73
:10102000017A9DD3079809F1010903440698814587
:1010300002F108027FF66EAF04981328029D4FEA72
:10104000900004903FF64EAF00984042019900BFD7
:1010500091ED001A91ED012A91ED023A91ED034ACA
:1010600091ED045A91ED056A91ED067AD1ED070AEA
:1010700071EE051A013031EE451A32EE065A32EEA3
:10108000462A33EE076A74EE202A33EE473A34EEEE
:10109000604A31EE867A75EE220A31EEC66A35EE86
:1010A000625A71EE441A72EE032A31EE041A32EEDD
:1010B000432A27EE003A20EE804A26EE006A25EE0B
:1010C000005A81ED003A21EE803A81ED014A22EE8C
:1010D000804A81ED026A21EE001A81ED035A22EE68
:1010E000002A81ED043A81ED054A81ED061A81ED71
:1010F000072A01F12001ABD108B0BDEC048B01B08F
:10110000BDE8F08F9FED1F1A20EE010A9FED1F2A08
:10111000BDEEC01AB5EEC00AF1EE10FA11EE100ADB
:10112000B8BF013801EE100A0020B8EEC11A30EE47
:10113000410A9FED151A20EE010ABCEEC01A11EE0D
:10114000101A30EE021AB0EB512F18BF002102EE38
:10115000101A41F6FC4000FE010AC0F60000B8EE8D
:10116000422A00EB810090ED011A30EE420AB7EE00
:10117000002A32EE402A20EE010A90ED001A02EE1B
:10118000010A704783F9223E00000044000000C4B9
:10119000FEE7704702488168027811448160704719
:1011A00000000024FEE7FEE7FEE770477047FFF708
:1011B000F1BF00002C48F0B52C4A016841F47001E1
:1011C0000160106800F00F00072804D2106820F0BA
:1011D0000F00C01D106026490020254C10340B68FC
:1011E000244D43F001030B6020600B682B400B6023
:1011F000136803F00F03072B04D9136823F00F03C0
:10120000DB1D13601A4C1C4A18341C4B261D371D5D
:101210002060174C1A4D28343060261D3860371D69
:1012200023603B1D35601C1D3A60251D2E1D186076
:10123000331D22602860326018600A680C4B114C24
:1012400022F4802260330A60186020686FF30F0078
:10125000B0F1005F03D20C490120C1F8080143F24C
:10126000D2000A490860F0BD88ED00E0002000527D
:10127000004402587FEDF6EA8002010100020202FA
:101280000000FF010010005C00800051004000528F
:10129000FEE700002DED0C8B012596B02B464FF498
:1012A000805B002259464FF480660DA8FFF778F95D
:1012B0007A4A0C2101AB009512A8FFF7D3FB9FEDF2
:1012C000788ADFED788A9FED78CAF2EE04AAB1EE53
:1012D00000BAB3EE0EAAF2EE00BADFED749A9FEDFB
:1012E00074DADFF8D0914FF4004A00BF724F002447
:1012F0004FF4205800EE104AB8EE400A20EE080ADB
:1013000020EE280AFFF7FEFEF0EE4CCA40EE2ACA95
:1013100000EE104AB8EE400A20EE080A20EE0B0A52
:1013200020EE280AFFF7EEFE40EE0ACA00EE104A51
:10133000B8EE400A20EE080A20EE2B0A20EE280A1A
:10134000FFF778F940EE29CABCEEEC0A10EE100A5D
:1013500000EE104A27F82400B8EE400A20EE080AF2
:1013600020EE280AFFF7CEFEB0EE4D9A00EE0A9A64
:1013700000EE104AB8EE400A20EE080A20EE0B0AF2
:1013800020EE280AFFF7BEFE00EE2A9A00EE104A71
:10139000B8EE400A20EE080A20EE2B0A20EE280ABA
:1013A000FFF748F900EE299A601C07EB840184B22C
:1013B0004445BCEEC90A10EE100A48809AD33F4C4F
:1013C0000020D84607EBC00101F5005104EBC00333
:1013D000421CB1F800C090B2404500EE10CAB8EE11
:1013E000400A83ED000A498800EE101AB8EE400A60
:1013F00083ED010AE6D331490DA8FFF7B0F82F4974
:1014000040F603072B485246FEF7B6FF002040F691
:10141000FA78CC4608EB4002E14604EB80010CEB85
:101420008203401C93ED000A01F5804281ED000A21
:1014300093ED010A80B2B84282ED000AEAD31D485A
:101440005146FEF7CBFF0027A0464C462B4607FB34
:1014500005F004EB800208EB800112A8FFF732F9D7
:101460007F1CBFB2B742F1D35FF000072B4607FBEA
:1014700005F004EB800208EB800112A801F5804121
:1014800002F58042FFF71EF97F1CBFB2B742EDD3D1
:1014900008485146FEF7A2FF28E70000CC140008D8
:1014A000DB0FC940000080390000C84200004842FC
:1014B00000008C420C8000240C0001240C0000244D
:1014C0004FF04070E1EE100A70470000BAE1EEBA4A
:1014D0001122D0BA4EEDB421F755723BCF4E043CE9
:1014E00058C20B3CA8A99DA29E858EBC88DC0BBD72
:1014F0009CA308BD52EE14230A828A3D0004000218
:10150000000600010005000300078000800480023F
:10151000800680018005800380074000400440026F
:1015200040064001400540034007C000C004C0021F
:10153000C006C001C005C003C0072000200420026F
:1015400020062001200520032007A000A004A002FF
:10155000A006A001A005A003A0076000600460022F
:1015600060066001600560036007E000E004E002DF
:10157000E006E001E005E003E007100010041002BF
:10158000100610011005100310079000900490023F
:10159000900690019005900390075000500450026F
:1015A00050065001500550035007D000D004D0021F
:1015B000D006D001D005D003D0073000300430026F
:1015C00030063001300530033007B000B004B002FF
:1015D000B006B001B005B003B0077000700470022F
:1015E00070067001700570037007F000F004F002DF
:1015F000F006F001F005F003F00708000804080207
:1016000008060801080508030807880088048802FE
:10161000880688018805880388074800480448022E
:1016200048064801480548034807C800C804C802DE
:10163000C806C801C805C803C8072800280428022E
:1016400028062801280528032807A800A804A802BE
:10165000A806A801A805A803A807680068046802EE
:1016600068066801680568036807E800E804E8029E
:10167000E806E801E805E803E8071800180418027E
:1016800018061801180518031807980098049802FE
:10169000980698019805980398075800580458022E
:1016A00058065801580558035807D800D804D802DE
:1016B000D806D801D805D803D8073800380438022E
:1016C00038063801380538033807B800B804B802BE
:1016D000B806B801B805B803B807780078047802EE
:1016E00078067801780578037807F800F804F8029E
:1016F000F806F801F805F803F807040004040402EA
:10170000040604010405040304078400840484021D
:10171000840684018405840384074400440444024D
:1017200044064401440544034407C400C404C402FD
:10173000C406C401C405C403C4072400240424024D
:1017400024062401240524032407A400A404A402DD
:10175000A406A401A405A403A4076400640464020D
:1017600064066401640564036407E400E404E402BD
:10177000E406E401E405E403E4071400140414029D
:10178000140614011405140314079400940494021D
:10179000940694019405940394075400540454024D
:1017A00054065401540554035407D400D404D402FD
:1017B000D406D401D405D403D4073400340434024D
:1017C00034063401340534033407B400B404B402DD
:1017D000B406B401B405B403B4077400740474020D
:1017E00074067401740574037407F400F404F402BD
:1017F000F406F401F405F403F4070C000C040C02E5
:101800000C060C010C050C030C078C008C048C02DC
:101810008C068C018C058C038C074C004C044C020C
:101820004C064C014C054C034C07CC00CC04CC02BC
:10183000CC06CC01CC05CC03CC072C002C042C020C
:101840002C062C012C052C032C07AC00AC04AC029C
:10185000AC06AC01AC05AC03AC076C006C046C02CC
:101860006C066C016C056C036C07EC00EC04EC027C
:10187000EC06EC01EC05EC03EC071C001C041C025C
:101880001C061C011C051C031C079C009C049C02DC
:101890009C069C019C059C039C075C005C045C020C
:1018A0005C065C015C055C035C07DC00DC04DC02BC
:1018B000DC06DC01DC05DC03DC073C003C043C020C
:1018C0003C063C013C053C033C07BC00BC04BC029C
:1018D000BC06BC01BC05BC03BC077C007C047C02CC
:1018E0007C067C017C057C037C07FC00FC04FC027C
:1018F000FC06FC01FC05FC03FC07020002040202DA
:10190000020602010205020302078200820482022B
:10191000820682018205820382074200420442025B
:1019200042064201420542034207C200C204C2020B
:10193000C206C201C205C203C2072200220422025B
:1019400022062201220522032207A200A204A202EB
:10195000A206A201A205A203A2076200620462021B
:1019600062066201620562036207E200E204E202CB
:10197000E206E201E205E203E207120012041202AB
:10198000120612011205120312079200920492022B
:10199000920692019205920392075200520452025B
:1019A00052065201520552035207D200D204D2020B
:1019B000D206D201D205D203D2073200320432025B
:1019C00032063201320532033207B200B204B202EB
:1019D000B206B201B205B203B2077200720472021B
:1019E00072067201720572037207F200F204F202CB
:1019F000F206F201F205F203F2070A000A040A02F3
:101A00000A060A010A050A030A078A008A048A02EA
:101A10008A068A018A058A038A074A004A044A021A
:101A20004A064A014A054A034A07CA00CA04CA02CA
:101A3000CA06CA01CA05CA03CA072A002A042A021A
:101A40002A062A012A052A032A07AA00AA04AA02AA
:101A5000AA06AA01AA05AA03AA076A006A046A02DA
:101A60006A066A016A056A036A07EA00EA04EA028A
:101A7000EA06EA01EA05EA03EA071A001A041A026A
:101A80001A061A011A051A031A079A009A049A02EA
:101A90009A069A019A059A039A075A005A045A021A
:101AA0005A065A015A055A035A07DA00DA04DA02CA
:101AB000DA06DA01DA05DA03DA073A003A043A021A
:101AC0003A063A013A053A033A07BA00BA04BA02AA
:101AD000BA06BA01BA05BA03BA077A007A047A02DA
:101AE0007A067A017A057A037A07FA00FA04FA028A
:101AF000FA06FA01FA05FA03FA07060006040602D6
:101B00000606060106050603060786008604860209
:101B10008606860186058603860746004604460239
:101B200046064601460546034607C600C604C602E9
:101B3000C606C601C605C603C60726002604260239
:101B400026062601260526032607A600A604A602C9
:101B5000A606A601A605A603A607660066046602F9
:101B600066066601660566036607E600E604E602A9
:101B7000E606E601E605E603E60716001604160289
:101B80001606160116051603160796009604960209
:101B90009606960196059603960756005604560239
:101BA00056065601560556035607D600D604D602E9
:101BB000D606D601D605D603D60736003604360239
:101BC00036063601360536033607B600B604B602C9
:101BD000B606B601B605B603B607760076047602F9
:101BE00076067601760576037607F600F604F602A9
:101BF000F606F601F605F603F6070E000E040E02D1
:101C00000E060E010E050E030E078E008E048E02C8
:101C10008E068E018E058E038E074E004E044E02F8
:101C20004E064E014E054E034E07CE00CE04CE02A8
:101C3000CE06CE01CE05CE03CE072E002E042E02F8
:101C40002E062E012E052E032E07AE00AE04AE0288
:101C5000AE06AE01AE05AE03AE076E006E046E02B8
:101C60006E066E016E056E036E07EE00EE04EE0268
:101C7000EE06EE01EE05EE03EE071E001E041E0248
:101C80001E061E011E051E031E079E009E049E02C8
:101C90009E069E019E059E039E075E005E045E02F8
:101CA0005E065E015E055E035E07DE00DE04DE02A8
:101CB000DE06DE01DE05DE03DE073E003E043E02F8
:101CC0003E063E013E053E033E07BE00BE04BE0288
:101CD000BE06BE01BE05BE03BE077E007E047E02B8
:101CE0007E067E017E057E037E07FE00FE04FE0268
:101CF000FE06FE01FE05FE03FE07010000000000D7
:101D0000920E493CB10AC93C2BC3163D2EFB483DFF
:101D1000752B7B3D04A9963D80B6AF3D36BDC83DD1
:101D20002FBCE13D73B2FA3D87CF093E8340163E9A
:101D3000B5AB223EA2102F3ECF6E3B3EC2C5473E02
:101D40000115543E135C603E7F9A6C3ECCCF783ECA
:101D5000C07D823E938E883E229A8E3E32A0943E73
:101D600086A09A3EE59AA03E128FA63ED47CAC3E59
:101D7000EF63B23E2A44B83E491DBE3E15EFC33E56
:101D800053B9C93ECA7BCF3E4136D53E80E8DA3EE4
:101D90004F92E03E7533E63EBBCBEB3EEA5AF13E56
:101DA000CBE0F63E275DFC3EE4E7003F3D9C033F71
:101DB000824B063F9BF5083F6B9A0B3FDA390E3F8B
:101DC000CDD3103F2A68133FD9F6153FC07F183F87
:101DD000C6021B3FD17F1D3FCBF61F3F9967223FB5
:101DE00025D2243F5636273F1594293F4AEB2B3FF7
:101DF000DE3B2E3FBB85303FC9C8323FF304353F41
:101E0000233A373F4268393F3B8F3B3FF9AE3D3F76
:101E100067C73F3F70D8413F01E2433F03E4453F7E
:101E200065DE473F12D1493FF8BB4B3F029F4D3F14
:101E3000207A4F3F3D4D513F4918533F31DB543FCE
:101E4000E595563F5348583F6AF2593F1A945B3F15
:101E5000532D5D3F05BE5E3F2146603F97C5613F04
:101E60005A3C633F59AA643F880F663FD86B673F6F
:101E70003CBF683FA7096A3F0C4B6B3F5E836C3FDA
:101E800093B26D3F9ED86E3F73F56F3F0809713F67
:101E90005213723F4714733FDD0B743F0BFA743FCC
:101EA000C6DE753F07BA763FC58B773FF853783F5C
:101EB0009812793F9DC7793F02737A3FBE147B3FEA
:101EC000CDAC7B3F283B7C3FC9BF7C3FAC3A7D3FDC
:101ED000CCAB7D3F23137E3FB0707E3F6DC47E3F11
:101EE000580E7F3F6D4E7F3FAB847F3F0FB17F3FEA
:101EF00097D37F3F43EC7F3F11FB7F3F0000803F44
:101F000011FB7F3F43EC7F3F97D37F3F0FB17F3F74
:101F1000AB847F3F6D4E7F3F580E7F3F6DC47E3F49
:101F2000B0707E3F23137E3FCCAB7D3FAC3A7D3F0C
:101F3000C9BF7C3F283B7C3FCDAC7B3FBE147B3F81
:101F400002737A3F9DC7793F9812793FF853783FE3
:101F5000C58B773F07BA763FC6DE753F0BFA743FF5
:101F6000DD0B743F4714733F5213723F0809713FF2
:101F700073F56F3F9ED86E3F93B26D3F5E836C3FAB
:101F80000C4B6B3FA7096A3F3CBF683FD86B673F6C
:101F9000880F663F59AA643F5A3C633F97C5613F2B
:101FA0002146603F05BE5E3F532D5D3F1A945B3F67
:101FB0006AF2593F5348583FE595563F31DB543F4D
:101FC0004918533F3D4D513F207A4F3F029F4D3FAF
:101FD000F8BB4B3F12D1493F65DE473F03E4453F25
:101FE00001E2433F70D8413F67C73F3FF9AE3D3FF5
:101FF0003B8F3B3F4268393F233A373FF304353F3D
:10200000C9C8323FBB85303FDE3B2E3F4AEB2B3FFA
:102010001594293F5636273F25D2243F9967223F02
:10202000CBF61F3FD17F1D3FC6021B3FC07F183F2D
:10203000D9F6153F2A68133FCDD3103FDA390E3F4A
:102040006B9A0B3F9BF5083F824B063F3D9C033F3D
:10205000E4E7003F275DFC3ECBE0F63EEA5AF13E66
:10206000BBCBEB3E7533E63E4F92E03E80E8DA3E76
:102070004136D53ECA7BCF3E53B9C93E15EFC33E6C
:10208000491DBE3E2A44B83EEF63B23ED47CAC3E0E
:10209000128FA63EE59AA03E86A09A3E32A0943EBC
:1020A000229A8E3E938E883EC07D823ECCCF783E73
:1020B0007F9A6C3E135C603E0115543EC2C5473E9C
:1020C000CF6E3B3EA2102F3EB5AB223E8340163E64
:1020D00087CF093E73B2FA3D2FBCE13D36BDC83D06
:1020E00080B6AF3D04A9963D752B7B3D2EFB483D48
:1020F0002BC3163DB10AC93C920E493C00000000BA
:10210000920E49BCB10AC9BC2BC316BD2EFB48BDFB
:10211000752B7BBD04A996BD80B6AFBD36BDC8BDCD
:102120002FBCE1BD73B2FABD87CF09BE834016BE96
:10213000B5AB22BEA2102FBECF6E3BBEC2C547BEFE
:10214000011554BE135C60BE7F9A6CBECCCF78BEC6
:10215000C07D82BE938E88BE229A8EBE32A094BE6F
:1021600086A09ABEE59AA0BE128FA6BED47CACBE55
:10217000EF63B2BE2A44B8BE491DBEBE15EFC3BE52
:1021800053B9C9BECA7BCFBE4136D5BE80E8DABEE0
:102190004F92E0BE7533E6BEBBCBEBBEEA5AF1BE52
:1021A000CBE0F6BE275DFCBEE4E700BF3D9C03BF6D
:1021B000824B06BF9BF508BF6B9A0BBFDA390EBF87
:1021C000CDD310BF2A6813BFD9F615BFC07F18BF83
:1021D000C6021BBFD17F1DBFCBF61FBF996722BFB1
:1021E00025D224BF563627BF159429BF4AEB2BBFF3
:1021F000DE3B2EBFBB8530BFC9C832BFF30435BF3D
:10220000233A37BF426839BF3B8F3BBFF9AE3DBF72
:1022100067C73FBF70D841BF01E243BF03E445BF7A
:1022200065DE47BF12D149BFF8BB4BBF029F4DBF10
:10223000207A4FBF3D4D51BF491853BF31DB54BFCA
:10224000E59556BF534858BF6AF259BF1A945BBF11
:10225000532D5DBF05BE5EBF214660BF97C561BF00
:102260005A3C63BF59AA64BF880F66BFD86B67BF6B
:102270003CBF68BFA7096ABF0C4B6BBF5E836CBFD6
:1022800093B26DBF9ED86EBF73F56FBF080971BF63
:10229000521372BF471473BFDD0B74BF0BFA74BFC8
:1022A000C6DE75BF07BA76BFC58B77BFF85378BF58
:1022B000981279BF9DC779BF02737ABFBE147BBFE6
:1022C000CDAC7BBF283B7CBFC9BF7CBFAC3A7DBFD8
:1022D000CCAB7DBF23137EBFB0707EBF6DC47EBF0D
:1022E000580E7FBF6D4E7FBFAB847FBF0FB17FBFE6
:1022F00097D37FBF43EC7FBF11FB7FBF000080BF40
:1023000011FB7FBF43EC7FBF97D37FBF0FB17FBF70
:10231000AB847FBF6D4E7FBF580E7FBF6DC47EBF45
:10232000B0707EBF23137EBFCCAB7DBFAC3A7DBF08
:10233000C9BF7CBF283B7CBFCDAC7BBFBE147BBF7D
:1023400002737ABF9DC779BF981279BFF85378BFDF
:10235000C58B77BF07BA76BFC6DE75BF0BFA74BFF1
:10236000DD0B74BF471473BF521372BF080971BFEE
:1023700073F56FBF9ED86EBF93B26DBF5E836CBFA7
:102380000C4B6BBFA7096ABF3CBF68BFD86B67BF68
:10239000880F66BF59AA64BF5A3C63BF97C561BF27
:1023A000214660BF05BE5EBF532D5DBF1A945BBF63
:1023B0006AF259BF534858BFE59556BF31DB54BF49
:1023C000491853BF3D4D51BF207A4FBF029F4DBFAB
:1023D000F8BB4BBF12D149BF65DE47BF03E445BF21
:1023E00001E243BF70D841BF67C73FBFF9AE3DBFF1
:1023F0003B8F3BBF426839BF233A37BFF30435BF39
:10240000C9C832BFBB8530BFDE3B2EBF4AEB2BBFF6
:10241000159429BF563627BF25D224BF996722BFFE
:10242000CBF61FBFD17F1DBFC6021BBFC07F18BF29
:10243000D9F615BF2A6813BFCDD310BFDA390EBF46
:102440006B9A0BBF9BF508BF824B06BF3D9C03BF39
:10245000E4E700BF275DFCBECBE0F6BEEA5AF1BE62
:10246000BBCBEBBE7533E6BE4F92E0BE80E8DABE72
:102470004136D5BECA7BCFBE53B9C9BE15EFC3BE68
:10248000491DBEBE2A44B8BEEF63B2BED47CACBE0A
:10249000128FA6BEE59AA0BE86A09ABE32A094BEB8
:1024A000229A8EBE938E88BEC07D82BECCCF78BE6F
:1024B0007F9A6CBE135C60BE011554BEC2C547BE98
:1024C000CF6E3BBEA2102FBEB5AB22BE834016BE60
:1024D00087CF09BE73B2FABD2FBCE1BD36BDC8BD02
:1024E00080B6AFBD04A996BD752B7BBD2EFB48BD44
:1024F0002BC316BDB10AC9BC920E49BC00000080B6
:102500000000803F00000000ECFF7F3FD40FC93A7D
:10251000B1FF7F3FC70F493B4EFF7F3FC1CB963B8B
:10252000C4FE7F3F890FC93B13FE7F3F3053FB3B07
:1025300039FD7F3F59CB163C39FC7F3F02ED2F3CE4
:1025400011FB7F3F900E493CC1F97F3F0030623C58
:102550004AF87F3F4B517B3CACF67F3F38398A3C91
:10256000E6F47F3FB6C9963CF8F27F3F1C5AA33C85
:10257000E3F07F3F69EAAF3CA7EE7F3F9B7ABC3C2C
:1025800043EC7F3FB00AC93CB8E97F3FA69AD53CEF
:1025900005E77F3F7B2AE23C2BE47F3F2DBAEE3CF0
:1025A00029E17F3FB949FB3C00DE7F3F90EC033DD2
:1025B000AFDA7F3F2F340A3D37D77F3FB87B103DDE
:1025C00098D37F3F2CC3163DD1CF7F3F880A1D3D56
:1025D000E2CB7F3FCC51233DCCC77F3FF698293DCE
:1025E0008FC37F3F07E02F3D2ABF7F3FFC26363D4C
:1025F0009EBA7F3FD56D3C3DEAB57F3F91B4423DE9
:102600000FB17F3F2FFB483D0DAC7F3FAF414F3DAA
:10261000E3A67F3F0E88553D91A17F3F4CCE5B3DA9
:10262000189C7F3F6814623D78967F3F625A683DF0
:10263000B1907F3F38A06E3DC28A7F3FE9E5743D8F
:10264000AB847F3F742B7B3D6D7E7F3F6CB8803DBC
:1026500008787F3F0ADB833D7B717F3F94FD863D99
:10266000C76A7F3F0A208A3DEC637F3F6A428D3D07
:10267000E95C7F3FB464903DBF557F3FE786933D63
:102680006D4E7F3F05A9963DF4467F3F0ACB993DAD
:10269000543F7F3FF9EC9C3D8D377F3FCF0EA03DEF
:1026A0009D2F7F3F8C30A33D87277F3F3052A63D33
:1026B000491F7F3FBA73A93DE4167F3F2B95AC3D80
:1026C000580E7F3F80B6AF3DA4057F3FBBD7B23DDC
:1026D000C9FC7E3FDAF8B53DC7F37E3FDD19B93D51
:1026E0009DEA7E3FC33ABC3D4CE17E3F8D5BBF3DE2
:1026F000D4D77E3F397CC23D34CE7E3FC69CC53D9B
:102700006DC47E3F36BDC83D7FBA7E3F86DDCB3D82
:1027100069B07E3FB7FDCE3D2DA67E3FC81DD23DA0
:10272000C99B7E3FB93DD53D3D917E3F895DD83DFA
:102730008B867E3F377DDB3DB17B7E3FC49CDE3D9B
:10274000B0707E3F2EBCE13D88657E3F76DBE43D88
:10275000385A7E3F9AFAE73DC14E7E3F9A19EB3DCB
:1027600023437E3F7638EE3D5E377E3F2E57F13D68
:10277000722B7E3FC075F43D5E1F7E3F2C94F73D6B
:1027800024137E3F73B2FA3DC2067E3F92D0FD3DD8
:1027900038FA7D3F4577003E88ED7D3F2E06023EAC
:1027A000B1E07D3F0295033EB2D37D3FC223053E9B
:1027B0008CC67D3F6EB2063E40B97D3F0541083E66
:1027C000CCAB7D3F86CF093E309E7D3FF35D0B3E17
:1027D0006E907D3F4AEC0C3E85827D3F8B7A0E3EAB
:1027E00074747D3FB708103E3D667D3FCC96113E28
:1027F000DE577D3FCA24133E59497D3FB2B2143E95
:10280000AC3A7D3F8340163ED82B7D3F3DCE173EF0
:10281000DD1C7D3FE05B193EBC0D7D3F6BE91A3E40
:1028200073FE7C3FDE761C3E03EF7C3F38041E3E89
:102830006CDF7C3F7B911F3EAECF7C3FA51E213ECF
:10284000C9BF7C3FB6AB223EBDAF7C3FAD38243E16
:102850008A9F7C3F8CC5253E318F7C3F5152273E5D
:10286000B07E7C3FFCDE283E086E7C3F8D6B2A3EAE
:102870003A5D7C3F04F82B3E444C7C3F61842D3E06
:10288000283B7C3FA2102F3EE5297C3FC99C303E6F
:102890007A187C3FD428323EE9067C3FC4B4333EEC
:1028A00031F57B3F9840353E53E37B3F50CC363E7D
:1028B0004DD17B3FEC57383E20BF7B3F6CE3393E28
:1028C000CDAC7B3FCF6E3B3E539A7B3F15FA3C3EEF
:1028D000B2877B3F3E853E3EEA747B3F4910403ED7
:1028E000FC617B3F379B413EE74E7B3F0726433EE3
:1028F000AB3B7B3FB9B0443E48287B3F4D3B463E17
:10290000BE147B3FC2C5473E0E017B3F1850493E77
:1029100037ED7A3F4FDA4A3E3AD97A3F67644C3E08
:1029200016C57A3F60EE4D3ECBB07A3F38784F3EC9
:10293000599C7A3FF101513EC1877A3F898B523EC3
:1029400002737A3F0115543E1C5E7A3F589E553EF5
:1029500010497A3F8F27573EDD337A3FA4B0583E67
:10296000841E7A3F97395A3E04097A3F6AC25B3E19
:102970005EF3793F1A4B5D3E91DD793FA8D35E3E11
:102980009DC7793F135C603E83B1793F5CE4613E53
:10299000439B793F836C633EDC84793F86F4643EDD
:1029A0004E6E793F667C663E9A57793F2204683EB8
:1029B000C040793FBA8B693EBF29793F2F136B3EE8
:1029C0009812793F7F9A6C3E4AFB783FAB216E3E6E
:1029D000D6E3783FB2A86F3E3BCC783F942F713E50
:1029E0007BB4783F51B6723E939C783FE83C743E8E
:1029F0008684783F5AC3753E526C783FA649773E2D
:102A0000F853783FCCCF783E773B783FCB557A3E32
:102A1000D122783FA4DB7B3E040A783F56617D3E9D
:102A200010F1773FE1E67E3EF7D7773F2236803ED2
:102A3000B7BE773FC0F8803E51A5773F4ABB813E85
:102A4000C58B773FC07D823E1372773F2240833E25
:102A50003A58773F7002843E3C3E773FAAC4843E9A
:102A60001724773FCE86853ECC09773FDF48863EE8
:102A70005BEF763FDA0A873EC4D4763FC1CC873E0F
:102A800007BA763F938E883E249F763F5050893E0A
:102A90001B84763FF8118A3EEC68763F8AD38A3EE3
:102AA000974D763F07958B3E1B32763F6E568C3E98
:102AB0007A16763FC0178D3EB3FA753FFCD88D3E2F
:102AC000C6DE753F229A8E3EB3C2753F325B8F3EA3
:102AD0007BA6753F2C1C903E1C8A753F10DD903EF6
:102AE000976D753FDD9D913EED50753F945E923E32
:102AF0001D34753F351F933E2717753FBFDF933E4B
:102B00000BFA743F31A0943EC9DC743F8D60953E52
:102B100062BF743FD220963ED5A1743F00E1963E3D
:102B20002284743F17A1973E4966743F1661983E10
:102B30004B48743FFE20993E272A743FCEE0993ED1
:102B4000DD0B743F86A09A3E6EED733F27609B3E7F
:102B5000D9CE733FAF1F9C3E1FB0733F20DF9C3E1A
:102B60003F91733F789E9D3E3972733FB85D9E3EA4
:102B70000E53733FDF1C9F3EBE33733FEEDB9F3E21
:102B80004714733FE59AA03EACF4723FC259A13E90
:102B9000EBD4723F8718A23E04B5723F33D7A23EF2
:102BA000F894723FC595A33EC774723F3F54A43E4C
:102BB0007054723F9F12A53EF433723FE5D0A53E9C
:102BC0005213723F128FA63E8CF2713F254DA73EE5
:102BD0009FD1713F1F0BA83E8EB0713FFEC8A83E2B
:102BE000578F713FC486A93EFB6D713F6F44AA3E6B
:102BF0007A4C713F0102AB3ED42A713F77BFAB3EA6
:102C00000809713FD47CAC3E17E7703F153AAD3EE2
:102C100002C5703F3CF7AD3EC6A2703F49B4AE3E20
:102C20006680703F3A71AF3EE15D703F102EB03E5E
:102C3000373B703FCBEAB03E6718703F6BA7B13EA1
:102C400073F56F3FEF63B23E5AD26F3F5820B33EE9
:102C50001BAF6F3FA5DCB33EB88B6F3FD698B43E39
:102C600030686F3FEC54B53E83446F3FE610B63E8C
:102C7000B0206F3FC3CCB63EBAFC6E3F8488B73EEF
:102C80009ED86E3F2A44B83E5DB46E3FB2FFB83E58
:102C9000F88F6E3F1EBBB93E6D6B6E3F6E76BA3ECF
:102CA000BE466E3FA031BB3EEB216E3FB6ECBB3E55
:102CB000F2FC6D3FAFA7BC3ED5D76D3F8B62BD3EEA
:102CC00093B26D3F4A1DBE3E2D8D6D3FEBD7BE3E8C
:102CD000A1676D3F6F92BF3EF2416D3FD54CC03E44
:102CE0001D1C6D3F1E07C13E24F66C3F48C1C13E0E
:102CF00007D06C3F557BC23EC5A96C3F4435C33EEF
:102D00005E836C3F15EFC33ED45C6C3FC8A8C43EE5
:102D100024366C3F5C62C53E500F6C3FD21BC63EF2
:102D200058E86B3F29D5C63E3BC16B3F628EC73E1C
:102D3000FB996B3F7C47C83E95726B3F7700C93E5D
:102D40000C4B6B3F53B9C93E5E236B3F1072CA3EBA
:102D50008CFB6A3FAE2ACB3E95D36A3F2CE3CB3E39
:102D60007BAB6A3F8B9BCC3E3C836A3FCA53CD3ED4
:102D7000D95A6A3FEA0BCE3E52326A3FEAC3CE3E90
:102D8000A7096A3FCA7BCF3ED7E0693F8A33D03E6E
:102D9000E4B7693F2AEBD03ECC8E693FAAA2D13E70
:102DA0009165693F095AD23E323C693F4811D33E92
:102DB000AE12693F67C8D33E07E9683F647FD43EDF
:102DC0003CBF683F4136D53E4C95683FFDECD53E53
:102DD000396B683F99A3D63E0341683F135AD73EEB
:102DE000A816683F6B10D83E2AEC673FA3C6D83EB2
:102DF00087C1673FB97CD93EC196673FAD32DA3EA5
:102E0000D86B673F80E8DA3ECA40673F319EDB3EC1
:102E10009915673FC153DC3E45EA663F2E09DD3E0A
:102E2000CCBE663F79BEDD3E3093663FA273DE3E88
:102E30007167663FA928DF3E8E3B663F8DDDDF3E32
:102E4000880F663F4F92E03E5EE3653FEE46E13E0F
:102E500010B7653F6AFBE13EA08A653FC4AFE23E22
:102E60000B5E653FFA63E33E5431653F0E18E43E66
:102E70007904653FFECBE43E7BD7643FCB7FE53EE4
:102E800059AA643F7533E63E147D643FFBE6E63E97
:102E9000AC4F643F5D9AE73E2122643F9C4DE83E83
:102EA00073F4633FB700E93EA1C6633FAEB3E93EAA
:102EB000AC98633F8166EA3E956A633F3019EB3E0A
:102EC0005A3C633FBBCBEB3EFC0D633F217EEC3EA7
:102ED0007BDF623F6330ED3ED7B0623F80E2ED3E84
:102EE0001082623F7994EE3E2653623F4C46EF3E9D
:102EF0001A24623FFBF7EF3EEAF4613F85A9F03EFA
:102F000098C5613FEA5AF13E2296613F290CF23E94
:102F10008A66613F43BDF23ED036613F386EF33E74
:102F2000F206613F071FF43EF2D6603FB1CFF43E98
:102F3000CFA6603F3580F53E8976603F9330F63E00
:102F40002146603FCBE0F63E9615603FDC90F73EB1
:102F5000E9E45F3FC840F83E19B45F3F8EF0F83EA9
:102F600027835F3F2DA0F93E12525F3FA54FFA3EE7
:102F7000DB205F3FF7FEFA3E81EF5E3F22AEFB3E75
:102F800005BE5E3F275DFC3E678C5E3F040CFD3E48
:102F9000A65A5E3FBBBAFD3EC3285E3F4A69FE3E6D
:102FA000BEF65D3FB217FF3E97C45D3FF3C5FF3EDF
:102FB0004D925D3F063A003FE15F5D3FFF90003F6D
:102FC000532D5D3FE4E7003FA3FA5C3FB53E013F70
:102FD000D1C75C3F7395013FDD945C3F1CEC013F22
:102FE000C7615C3FB142023F8E2E5C3F3299023F87
:102FF00034FB5B3F9FEF023FB8C75B3FF845033FA1
:103000001A945B3F3D9C033F5A605B3F6DF2033F68
:10301000792C5B3F8948043F75F85A3F919E043FE5
:1030200050C45A3F84F4043F09905A3F624A053F16
:10303000A05B5A3F2CA0053F16275A3FE2F5053FFB
:103040006AF2593F824B063F9CBD593F0EA1063F95
:10305000AD88593F86F6063F9C53593FE84B073FE2
:103060006A1E593F36A1073F17E9583F6FF6073FE1
:10307000A1B3583F924B083F0B7E583FA1A0083F99
:103080005348583F9BF5083F7912583F7F4A093F04
:103090007FDC573F4E9F093F63A6573F09F4093F26
:1030A0002670573FAD480A3FC739573F3D9D0A3FFD
:1030B0004803573FB7F10A3FA7CC563F1C460B3F8A
:1030C000E595563F6B9A0B3F025F563FA5EE0B3FCF
:1030D000FE27563FC9420C3FD9F0553FD7960C3FCB
:1030E00093B9553FD0EA0C3F2C82553FB33E0D3F7C
:1030F000A44A553F81920D3FFB12553F38E60D3FE4
:1031000031DB543FDA390E3F47A3543F658D0E3F04
:103110003B6B543FDBE00E3F0F33543F3B340F3FDC
:10312000C3FA533F84870F3F55C2533FB8DA0F3F6E
:10313000C789533FD52D103F1851533FDC80103FB6
:103140004918533FCDD3103F59DF523FA726113FB7
:1031500049A6523F6B79113F186D523F19CC113F70
:10316000C633523FB01E123F54FA513F3071123FE6
:10317000C2C0513F9AC3123F1087513FEE15133F13
:103180003D4D513F2A68133F4A13513F50BA133FF8
:1031900037D9503F5F0C143F039F503F585E143F98
:1031A000AF64503F39B0143F3B2A503F0402153FF3
:1031B000A8EF4F3FB753153FF4B44F3F54A5153F09
:1031C0001F7A4F3FD9F6153F2B3F4F3F4748163FD9
:1031D00017044F3F9F99163FE4C84E3FDFEA163F62
:1031E000908D4E3F073C173F1C524E3F188D173FA6
:1031F00089164E3F12DE173FD5DA4D3FF52E183FA8
:10320000029F4D3FC07F183F10634D3F73D0183F62
:10321000FD264D3F0F21193FCBEA4C3F9471193FDA
:1032200079AE4C3F00C2193F08724C3F55121A3F0D
:1032300078354C3F93621A3FC7F84B3FB8B21A3FFC
:10324000F8BB4B3FC6021B3F097F4B3FBB521B3FA6
:10325000FA414B3F99A21B3FCC044B3F5FF21B3F0F
:103260007FC74A3F0C421C3F138A4A3FA2911C3F32
:10327000874C4A3F1FE11C3FDC0E4A3F84301D3F14
:1032800012D1493FD17F1D3F2993493F06CF1D3FB2
:103290002155493F221E1E3FFA16493F266D1E3F0B
:1032A000B3D8483F12BC1E3F4E9A483FE50A1F3F25
:1032B000CA5B483F9F591F3F271D483F41A81F3FFA
:1032C00065DE473FCBF61F3F849F473F3B45203F8E
:1032D0008560473F9393203F6721473FD2E1203FDE
:1032E0002AE2463FF92F213FCEA2463F067E213FEC
:1032F0005463463FFBCB213FBB23463FD719223FB8
:1033000003E4453F9967223F2DA4453F43B5223F43
:103310003964453FD302233F2624453F4B50233F8A
:10332000F5E3443FA99D233FA5A3443FEEEA233F95
:103330003763443F1A38243FAB22443F2C85243F57
:1033400000E2433F25D2243F38A1433F041F253FDD
:103350005160433FCB6B253F4C1F433F77B8253F20
:1033600029DE423F0A05263FE89C423F8451263F22
:10337000895B423FE39D263F0B1A423F2AEA263FE4
:1033800070D8413F5636273FB796413F6882273F66
:10339000E154413F61CE273FEC12413F401A283FA4
:1033A000DAD0403F0566283FA98E403FB0B1283FA4
:1033B0005C4C403F41FD283FF009403FB848293F61
:1033C00067C73F3F1594293FC0843F3F57DF293FE0
:1033D000FC413F3F802A2A3F1BFF3E3F8E752A3F1C
:1033E0001BBC3E3F82C02A3FFF783E3F5B0B2B3F1A
:1033F000C5353E3F1B562B3F6EF23D3FBFA02B3FD6
:10340000F9AE3D3F4AEB2B3F676B3D3FB9352C3F53
:10341000B8273D3F0F802C3FECE33C3F49CA2C3F8F
:1034200003A03C3F69142D3FFC5B3C3F6F5E2D3F8A
:10343000D9173C3F59A82D3F98D33B3F29F22D3F48
:103440003B8F3B3FDE3B2E3FC14A3B3F78852E3FC3
:1034500029063B3FF7CE2E3F75C13A3F5B182F3F01
:10346000A47C3A3FA5612F3FB7373A3FD3AA2F3FFD
:10347000ACF2393FE6F32F3F85AD393FDE3C303FBC
:103480004268393FBB85303FE122393F7CCE303F37
:1034900065DD383F2217313FCB97383FAD5F313F75
:1034A0001652383F1DA8313F430C383F71F0313F71
:1034B00055C6373FAA38323F4A80373FC780323F30
:1034C000233A373FC9C8323FDFF3363FAF10333FAF
:1034D0007FAD363F7A58333F0467363F29A0333FEC
:1034E0006C20363FBCE7333FB8D9353F342F343FEB
:1034F000E792353F8F76343FFB4B353FCFBD343FAE
:10350000F304353FF304353FCFBD343FFB4B353F2C
:103510008F76343FE792353F342F343FB8D9353F6B
:10352000BCE7333F6C20363F29A0333F0467363F6A
:103530007A58333F7FAD363FAF10333FDFF3363F2E
:10354000C9C8323F233A373FC780323F4A80373FAE
:10355000AA38323F55C6373F71F0313F430C383FF0
:103560001DA8313F1652383FAD5F313FCB97383FF2
:103570002217313F65DD383F7CCE303FE122393FB5
:10358000BB85303F4268393FDE3C303F85AD393F37
:10359000E6F32F3FACF2393FD3AA2F3FB7373A3F7C
:1035A000A5612F3FA47C3A3F5B182F3F75C13A3F7E
:1035B000F7CE2E3F29063B3F78852E3FC14A3B3F41
:1035C000DE3B2E3F3B8F3B3F29F22D3F98D33B3FC5
:1035D00059A82D3FD9173C3F6F5E2D3FFC5B3C3F08
:1035E00069142D3F03A03C3F49CA2C3FECE33C3F0C
:1035F0000F802C3FB8273D3FB9352C3F676B3D3FCF
:103600004AEB2B3FF9AE3D3FBFA02B3F6EF23D3F53
:103610001B562B3FC5353E3F5B0B2B3FFF783E3F94
:1036200082C02A3F1BBC3E3F8E752A3F1BFF3E3F98
:10363000802A2A3FFC413F3F57DF293FC0843F3F5C
:103640001594293F67C73F3FB848293FF009403FDD
:1036500041FD283F5C4C403FB0B1283FA98E403F20
:103660000566283FDAD0403F401A283FEC12413F20
:1036700061CE273FE154413F6882273FB796413FE3
:103680005636273F70D8413F2AEA263F0B1A423F61
:10369000E39D263F895B423F8451263FE89C423FA1
:1036A0000A05263F29DE423F77B8253F4C1F433F9E
:1036B000CB6B253F5160433F041F253F38A1433F5B
:1036C00025D2243F00E2433F2C85243FAB22443FD8
:1036D0001A38243F3763443FEEEA233FA5A3443F13
:1036E000A99D233FF5E3443F4B50233F2624453F0C
:1036F000D302233F3964453F43B5223F2DA4453FC4
:103700009967223F03E4453FD719223FBB23463F39
:10371000FBCB213F5463463F067E213FCEA2463F6E
:10372000F92F213F2AE2463FD2E1203F6721473F60
:103730009393203F8560473F3B45203F849F473F11
:10374000CBF61F3F65DE473F41A81F3F271D483F7F
:103750009F591F3FCA5B483FE50A1F3F4E9A483FAB
:1037600012BC1E3FB3D8483F266D1E3FFA16493F94
:10377000221E1E3F2155493F06CF1D3F2993493F39
:10378000D17F1D3F12D1493F84301D3FDC0E4A3F9F
:103790001FE11C3F874C4A3FA2911C3F138A4A3FBE
:1037A0000C421C3F7FC74A3F5FF21B3FCC044B3F9C
:1037B00099A21B3FFA414B3FBB521B3F097F4B3F36
:1037C000C6021B3FF8BB4B3FB8B21A3FC7F84B3F8E
:1037D00093621A3F78354C3F55121A3F08724C3F9E
:1037E00000C2193F79AE4C3F9471193FCBEA4C3F70
:1037F0000F21193FFD264D3F73D0183F10634D3FF9
:10380000C07F183F029F4D3FF52E183FD5DA4D3F40
:1038100012DE173F89164E3F188D173F1C524E3F40
:10382000073C173F908D4E3FDFEA163FE4C84E3FFE
:103830009F99163F17044F3F4748163F2B3F4F3F76
:10384000D9F6153F1F7A4F3F54A5153FF4B44F3FAB
:10385000B753153FA8EF4F3F0402153F3B2A503F97
:1038600039B0143FAF64503F585E143F039F503F40
:103870005F0C143F37D9503F50BA133F4A13513FA2
:103880002A68133F3D4D513FEE15133F1087513FBE
:103890009AC3123FC2C0513F3071123F54FA513F98
:1038A000B01E123FC633523F19CC113F186D523F24
:1038B0006B79113F49A6523FA726113F59DF523F6E
:1038C000CDD3103F4918533FDC80103F1851533F70
:1038D000D52D103FC789533FB8DA0F3F55C2533F2C
:1038E00084870F3FC3FA533F3B340F3F0F33543F9E
:1038F000DBE00E3F3B6B543F658D0E3F47A3543FCB
:10390000DA390E3F31DB543F38E60D3FFB12553FAD
:1039100081920D3FA44A553FB33E0D3F2C82553F47
:10392000D0EA0C3F93B9553FD7960C3FD9F0553F9D
:10393000C9420C3FFE27563FA5EE0B3F025F563FA4
:103940006B9A0B3FE595563F1C460B3FA7CC563F65
:10395000B7F10A3F4803573F3D9D0A3FC739573FDC
:10396000AD480A3F2670573F09F4093F63A6573F09
:103970004E9F093F7FDC573F7F4A093F7912583FEE
:103980009BF5083F5348583FA1A0083F0B7E583F86
:10399000924B083FA1B3583F6FF6073F17E9583FD6
:1039A00036A1073F6A1E593FE84B073F9C53593FDA
:1039B00086F6063FAD88593F0EA1063F9CBD593F94
:1039C000824B063F6AF2593FE2F5053F16275A3F00
:1039D0002CA0053FA05B5A3F624A053F09905A3F21
:1039E00084F4043F50C45A3F919E043F75F85A3FF7
:1039F0008948043F792C5B3F6DF2033F5A605B3F7F
:103A00003D9C033F1A945B3FF845033FB8C75B3FBB
:103A10009FEF023F34FB5B3F3299023F8E2E5C3FAB
:103A2000B142023FC7615C3F1CEC013FDD945C3F4B
:103A30007395013FD1C75C3FB53E013FA3FA5C3FA0
:103A4000E4E7003F532D5D3FFF90003FE15F5D3FA6
:103A5000063A003F4D925D3FF3C5FF3E97C45D3F80
:103A6000B217FF3EBEF65D3F4A69FE3EC3285E3F89
:103A7000BBBAFD3EA65A5E3F040CFD3E678C5E3F1E
:103A8000275DFC3E05BE5E3F22AEFB3E81EF5E3F02
:103A9000F7FEFA3EDB205F3FA54FFA3E12525F3F32
:103AA0002DA0F93E27835F3F8EF0F83E19B45F3FAB
:103AB000C840F83EE9E45F3FDC90F73E9615603F72
:103AC000CBE0F63E2146603F9330F63E8976603F7C
:103AD0003580F53ECFA6603FB1CFF43EF2D6603FD1
:103AE000071FF43EF206613F386EF33ED036613F69
:103AF00043BDF23E8A66613F290CF23E2296613F49
:103B0000EA5AF13E98C5613F85A9F03EEAF4613F6B
:103B1000FBF7EF3E1A24623F4C46EF3E2653623FCE
:103B20007994EE3E1082623F80E2ED3ED7B0623F74
:103B30006330ED3E7BDF623F217EEC3EFC0D633F58
:103B4000BBCBEB3E5A3C633F3019EB3E956A633F7B
:103B50008166EA3EAC98633FAEB3E93EA1C6633FDF
:103B6000B700E93E73F4633F9C4DE83E2122643F79
:103B70005D9AE73EAC4F643FFBE6E63E147D643F52
:103B80007533E63E59AA643FCB7FE53E7BD7643F61
:103B9000FECBE43E7904653F0E18E43E5431653FA8
:103BA000FA63E33E0B5E653FC4AFE23EA08A653F29
:103BB0006AFBE13E10B7653FEE46E13E5EE3653FDE
:103BC0004F92E03E880F663F8DDDDF3E8E3B663FC5
:103BD000A928DF3E7167663FA273DE3E3093663FE1
:103BE00079BEDD3ECCBE663F2E09DD3E45EA663F2E
:103BF000C153DC3E9915673F319EDB3ECA40673FAB
:103C000080E8DA3ED86B673FAD32DA3EC196673F57
:103C1000B97CD93E87C1673FA3C6D83E2AEC673F2F
:103C20006B10D83EA816683F135AD73E0341683F31
:103C300099A3D63E396B683FFDECD53E4C95683F65
:103C40004136D53E3CBF683F647FD43E07E9683FBC
:103C500067C8D33EAE12693F4811D33E323C693F3C
:103C6000095AD23E9165693FAAA2D13ECC8E693FE6
:103C70002AEBD03EE4B7693F8A33D03ED7E0693FB4
:103C8000CA7BCF3EA7096A3FEAC3CE3E52326A3FA3
:103C9000EA0BCE3ED95A6A3FCA53CD3E3C836A3FB7
:103CA0008B9BCC3E7BAB6A3F2CE3CB3E95D36A3FEC
:103CB000AE2ACB3E8CFB6A3F1072CA3E5E236B3F3E
:103CC00053B9C93E0C4B6B3F7700C93E95726B3FB1
:103CD0007C47C83EFB996B3F628EC73E3BC16B3F42
:103CE00029D5C63E58E86B3FD21BC63E500F6C3FED
:103CF0005C62C53E24366C3FC8A8C43ED45C6C3FB1
:103D000015EFC33E5E836C3F4435C33EC5A96C3F8F
:103D1000557BC23E07D06C3F48C1C13E24F66C3F84
:103D20001E07C13E1D1C6D3FD54CC03EF2416D3F8C
:103D30006F92BF3EA1676D3FEBD7BE3E2D8D6D3FAD
:103D40004A1DBE3E93B26D3F8B62BD3ED5D76D3FDF
:103D5000AFA7BC3EF2FC6D3FB6ECBB3EEB216E3F25
:103D6000A031BB3EBE466E3F6E76BA3E6D6B6E3F77
:103D70001EBBB93EF88F6E3FB2FFB83E5DB46E3FDA
:103D80002A44B83E9ED86E3F8488B73EBAFC6E3F48
:103D9000C3CCB63EB0206F3FE610B63E83446F3FC3
:103DA000EC54B53E30686F3FD698B43EB88B6F3F49
:103DB000A5DCB33E1BAF6F3F5820B33E5AD26F3FD6
:103DC000EF63B23E73F56F3F6BA7B13E6718703F6C
:103DD000CBEAB03E373B703F102EB03EE15D703F06
:103DE0003A71AF3E6680703F49B4AE3EC6A2703FA6
:103DF0003CF7AD3E02C5703F153AAD3E17E7703F48
:103E0000D47CAC3E0809713F77BFAB3ED42A713FEA
:103E10000102AB3E7A4C713F6F44AA3EFB6D713F8D
:103E2000C486A93E578F713FFEC8A83E8EB0713F31
:103E30001F0BA83E9FD1713F254DA73E8CF2713FCD
:103E4000128FA63E5213723FE5D0A53EF433723F67
:103E50009F12A53E7054723F3F54A43EC774723FF8
:103E6000C595A33EF894723F33D7A23E04B5723F86
:103E70008718A23EEBD4723FC259A13EACF4723F08
:103E8000E59AA03E4714733FEEDB9F3EBE33733F7F
:103E9000DF1C9F3E0E53733FB85D9E3E3972733FE9
:103EA000789E9D3E3F91733F20DF9C3E1FB0733F45
:103EB000AF1F9C3ED9CE733F27609B3E6EED733F94
:103EC00086A09A3EDD0B743FCEE0993E272A743FD0
:103ED000FE20993E4B48743F1661983E4966743FF8
:103EE00017A1973E2284743F00E1963ED5A1743F0E
:103EF000D220963E62BF743F8D60953EC9DC743F10
:103F000031A0943E0BFA743FBFDF933E2717753FF5
:103F1000351F933E1D34753F945E923EED50753FC4
:103F2000DD9D913E976D753F10DD903E1C8A753F7B
:103F30002C1C903E7BA6753F325B8F3EB3C2753F13
:103F4000229A8E3EC6DE753FFCD88D3EB3FA753F91
:103F5000C0178D3E7A16763F6E568C3E1B32763FEA
:103F600007958B3E974D763F8AD38A3EEC68763F25
:103F7000F8118A3E1B84763F5050893E249F763F3D
:103F8000938E883E07BA763FC1CC873EC4D4763F35
:103F9000DA0A873E5BEF763FDF48863ECC09773F03
:103FA000CE86853E1724773FAAC4843E3C3E773FA9
:103FB0007002843E3A58773F2240833E1372773F27
:103FC000C07D823EC58B773F4ABB813E51A5773F7E
:103FD000C0F8803EB7BE773F2236803EF7D7773FA6
:103FE000E1E67E3E10F1773F56617D3E040A783F60
:103FF000A4DB7B3ED122783FCB557A3E773B783F9E
:10400000CCCF783EF853783FA649773E526C783F44
:104010005AC3753E8684783FE83C743E939C783F53
:1040200051B6723E7BB4783F942F713E3BCC783FC3
:10403000B2A86F3ED6E3783FAB216E3E4AFB783F95
:104040007F9A6C3E9812793F2F136B3EBF29793FC0
:10405000BA8B693EC040793F2204683E9A57793F47
:10406000667C663E4E6E793F86F4643EDC84793F22
:10407000836C633E439B793F5CE4613E83B1793F4F
:10408000135C603E9DC7793FA8D35E3E91DD793FCA
:104090001A4B5D3E5EF3793F6AC25B3E04097A3F8C
:1040A00097395A3E841E7A3FA4B0583EDD337A3F9A
:1040B0008F27573E10497A3F589E553E1C5E7A3FE7
:1040C0000115543E02737A3F898B523EC1877A3F75
:1040D000F101513E599C7A3F38784F3ECBB07A3F40
:1040E00060EE4D3E16C57A3F67644C3E3AD97A3F42
:1040F0004FDA4A3E37ED7A3F1850493E0E017B3F7A
:10410000C2C5473EBE147B3F4D3B463E48287B3FE1
:10411000B9B0443EAB3B7B3F0726433EE74E7B3F77
:10412000379B413EFC617B3F4910403EEA747B3F38
:104130003E853E3EB2877B3F15FA3C3E539A7B3F1D
:10414000CF6E3B3ECDAC7B3F6CE3393E20BF7B3F27
:10415000EC57383E4DD17B3F50CC363E53E37B3F4E
:104160009840353E31F57B3FC4B4333EE9067C3F91
:10417000D428323E7A187C3FC99C303EE5297C3FEA
:10418000A2102F3E283B7C3F61842D3E444C7C3F57
:1041900004F82B3E3A5D7C3F8D6B2A3E086E7C3FD7
:1041A000FCDE283EB07E7C3F5152273E318F7C3F63
:1041B0008CC5253E8A9F7C3FAD38243EBDAF7C3FF9
:1041C000B6AB223EC9BF7C3FA51E213EAECF7C3F91
:1041D0007B911F3E6CDF7C3F38041E3E03EF7C3F2B
:1041E000DE761C3E73FE7C3F6BE91A3EBC0D7D3FC4
:1041F000E05B193EDD1C7D3F3DCE173ED82B7D3F59
:104200008340163EAC3A7D3FB2B2143E59497D3FE1
:10421000CA24133EDE577D3FCC96113E3D667D3F5E
:10422000B708103E74747D3F8B7A0E3E85827D3FC9
:104230004AEC0C3E6E907D3FF35D0B3E309E7D3F21
:1042400086CF093ECCAB7D3F0541083E40B97D3F5E
:104250006EB2063E8CC67D3FC223053EB2D37D3F83
:104260000295033EB1E07D3F2E06023E88ED7D3F84
:104270004577003E38FA7D3F92D0FD3DC2067E3F35
:1042800073B2FA3D24137E3F2C94F73D5E1F7E3FB0
:10429000C075F43D722B7E3F2E57F13D5E377E3F59
:1042A0007638EE3D23437E3F9A19EB3DC14E7E3F6B
:1042B0009AFAE73D385A7E3F76DBE43D88657E3FDB
:1042C0002EBCE13DB0707E3FC49CDE3DB17B7E3FA5
:1042D000377DDB3D8B867E3F895DD83D3D917E3FBE
:1042E000B93DD53DC99B7E3FC81DD23D2DA67E3F21
:1042F000B7FDCE3D69B07E3F86DDCB3D7FBA7E3FC8
:1043000036BDC83D6DC47E3FC69CC53D34CE7E3FA4
:10431000397CC23DD4D77E3F8D5BBF3D4CE17E3FB3
:10432000C33ABC3D9DEA7E3FDD19B93DC7F37E3FF0
:10433000DAF8B53DC9FC7E3FBBD7B23DA4057F3F4F
:1043400080B6AF3D580E7F3F2B95AC3DE4167F3FC6
:10435000BA73A93D491F7F3F3052A63D87277F3F53
:104360008C30A33D9D2F7F3FCF0EA03D8D377F3FEB
:10437000F9EC9C3D543F7F3F0ACB993DF4467F3F8B
:1043800005A9963D6D4E7F3FE786933DBF557F3F24
:10439000B464903DE95C7F3F6A428D3DEC637F3FB2
:1043A0000A208A3DC76A7F3F94FD863D7B717F3F2F
:1043B0000ADB833D08787F3F6CB8803D6D7E7F3F90
:1043C000742B7B3DAB847F3FE9E5743DC28A7F3F20
:1043D00038A06E3DB1907F3F625A683D78967F3F2E
:1043E0006814623D189C7F3F4CCE5B3D91A17F3F9E
:1043F0000E88553DE3A67F3FAF414F3D0DAC7F3F5B
:104400002FFB483D0FB17F3F91B4423DEAB57F3F5E
:10441000D56D3C3D9EBA7F3FFC26363D2ABF7F3F8F
:1044200007E02F3D8FC37F3FF698293DCCC77F3FE4
:10443000CC51233DE2CB7F3F880A1D3DD1CF7F3F4A
:104440002CC3163D98D37F3FB87B103D37D77F3FB5
:104450002F340A3DAFDA7F3F90EC033D00DE7F3F13
:10446000B949FB3C29E17F3F2DBAEE3C2BE47F3F6D
:104470007B2AE23C05E77F3FA69AD53CB8E97F3F1F
:10448000B00AC93C43EC7F3F9B7ABC3CA7EE7F3F20
:1044900069EAAF3CE3F07F3F1C5AA33CF8F27F3F50
:1044A000B6C9963CE6F47F3F38398A3CACF67F3F8C
:1044B0004B517B3C4AF87F3F0030623CC1F97F3F63
:1044C000900E493C11FB7F3F02ED2F3C39FC7F3FB2
:1044D00059CB163C39FD7F3F3053FB3B13FE7F3FEA
:1044E000890FC93BC4FE7F3FC1CB963B4EFF7F3F48
:1044F000C70F493BB1FF7F3FD40FC93AECFF7F3F65
:10450000000000000000803FD40FC9BAECFF7F3FDD
:10451000C70F49BBB1FF7F3FC1CB96BB4EFF7F3F6B
:10452000890FC9BBC4FE7F3F3053FBBB13FE7F3FE7
:1045300059CB16BC39FD7F3F02ED2FBC39FC7F3FC4
:10454000900E49BC11FB7F3F003062BCC1F97F3F38
:104550004B517BBC4AF87F3F38398ABCACF67F3F71
:10456000B6C996BCE6F47F3F1C5AA3BCF8F27F3F65
:1045700069EAAFBCE3F07F3F9B7ABCBCA7EE7F3F0C
:10458000B00AC9BC43EC7F3FA69AD5BCB8E97F3FCF
:104590007B2AE2BC05E77F3F2DBAEEBC2BE47F3FD0
:1045A000B949FBBC29E17F3F90EC03BD00DE7F3FB2
:1045B0002F340ABDAFDA7F3FB87B10BD37D77F3FBE
:1045C0002CC316BD98D37F3F880A1DBDD1CF7F3F36
:1045D000CC5123BDE2CB7F3FF69829BDCCC77F3FAE
:1045E00007E02FBD8FC37F3FFC2636BD2ABF7F3F2C
:1045F000D56D3CBD9EBA7F3F91B442BDEAB57F3FC9
:104600002FFB48BD0FB17F3FAF414FBD0DAC7F3F8A
:104610000E8855BDE3A67F3F4CCE5BBD91A17F3F89
:10462000681462BD189C7F3F625A68BD78967F3FD0
:1046300038A06EBDB1907F3FE9E574BDC28A7F3F6F
:10464000742B7BBDAB847F3F6CB880BD6D7E7F3F9C
:104650000ADB83BD08787F3F94FD86BD7B717F3F79
:104660000A208ABDC76A7F3F6A428DBDEC637F3FE7
:10467000B46490BDE95C7F3FE78693BDBF557F3F43
:1046800005A996BD6D4E7F3F0ACB99BDF4467F3F8D
:10469000F9EC9CBD543F7F3FCF0EA0BD8D377F3FCF
:1046A0008C30A3BD9D2F7F3F3052A6BD87277F3F13
:1046B000BA73A9BD491F7F3F2B95ACBDE4167F3F60
:1046C00080B6AFBD580E7F3FBBD7B2BDA4057F3FBC
:1046D000DAF8B5BDC9FC7E3FDD19B9BDC7F37E3F31
:1046E000C33ABCBD9DEA7E3F8D5BBFBD4CE17E3FC2
:1046F000397CC2BDD4D77E3FC69CC5BD34CE7E3F7B
:1047000036BDC8BD6DC47E3F86DDCBBD7FBA7E3F62
:10471000B7FDCEBD69B07E3FC81DD2BD2DA67E3F80
:10472000B93DD5BDC99B7E3F895DD8BD3D917E3FDA
:10473000377DDBBD8B867E3FC49CDEBDB17B7E3F7B
:104740002EBCE1BDB0707E3F76DBE4BD88657E3F68
:104750009AFAE7BD385A7E3F9A19EBBDC14E7E3FAB
:104760007638EEBD23437E3F2E57F1BD5E377E3F48
:10477000C075F4BD722B7E3F2C94F7BD5E1F7E3F4B
:1047800073B2FABD24137E3F92D0FDBDC2067E3FB8
:10479000457700BE38FA7D3F2E0602BE88ED7D3F8C
:1047A000029503BEB1E07D3FC22305BEB2D37D3F7B
:1047B0006EB206BE8CC67D3F054108BE40B97D3F46
:1047C00086CF09BECCAB7D3FF35D0BBE309E7D3FF7
:1047D0004AEC0CBE6E907D3F8B7A0EBE85827D3F8B
:1047E000B70810BE74747D3FCC9611BE3D667D3F08
:1047F000CA2413BEDE577D3FB2B214BE59497D3F75
:10480000834016BEAC3A7D3F3DCE17BED82B7D3FD0
:10481000E05B19BEDD1C7D3F6BE91ABEBC0D7D3F20
:10482000DE761CBE73FE7C3F38041EBE03EF7C3F69
:104830007B911FBE6CDF7C3FA51E21BEAECF7C3FAF
:10484000B6AB22BEC9BF7C3FAD3824BEBDAF7C3FF6
:104850008CC525BE8A9F7C3F515227BE318F7C3F3D
:10486000FCDE28BEB07E7C3F8D6B2ABE086E7C3F8E
:1048700004F82BBE3A5D7C3F61842DBE444C7C3FE6
:10488000A2102FBE283B7C3FC99C30BEE5297C3F4F
:10489000D42832BE7A187C3FC4B433BEE9067C3FCC
:1048A000984035BE31F57B3F50CC36BE53E37B3F5D
:1048B000EC5738BE4DD17B3F6CE339BE20BF7B3F08
:1048C000CF6E3BBECDAC7B3F15FA3CBE539A7B3FCF
:1048D0003E853EBEB2877B3F491040BEEA747B3FB7
:1048E000379B41BEFC617B3F072643BEE74E7B3FC3
:1048F000B9B044BEAB3B7B3F4D3B46BE48287B3FF7
:10490000C2C547BEBE147B3F185049BE0E017B3F57
:104910004FDA4ABE37ED7A3F67644CBE3AD97A3FE8
:1049200060EE4DBE16C57A3F38784FBECBB07A3FA9
:10493000F10151BE599C7A3F898B52BEC1877A3FA3
:10494000011554BE02737A3F589E55BE1C5E7A3FD5
:104950008F2757BE10497A3FA4B058BEDD337A3F47
:1049600097395ABE841E7A3F6AC25BBE04097A3FF9
:104970001A4B5DBE5EF3793FA8D35EBE91DD793FF1
:10498000135C60BE9DC7793F5CE461BE83B1793F33
:10499000836C63BE439B793F86F464BEDC84793FBD
:1049A000667C66BE4E6E793F220468BE9A57793F98
:1049B000BA8B69BEC040793F2F136BBEBF29793FC8
:1049C0007F9A6CBE9812793FAB216EBE4AFB783F4E
:1049D000B2A86FBED6E3783F942F71BE3BCC783F30
:1049E00051B672BE7BB4783FE83C74BE939C783F6E
:1049F0005AC375BE8684783FA64977BE526C783F0D
:104A0000CCCF78BEF853783FCB557ABE773B783F12
:104A1000A4DB7BBED122783F56617DBE040A783F7D
:104A2000E1E67EBE10F1773F223680BEF7D7773FB2
:104A3000C0F880BEB7BE773F4ABB81BE51A5773F65
:104A4000C07D82BEC58B773F224083BE1372773F05
:104A5000700284BE3A58773FAAC484BE3C3E773F7A
:104A6000CE8685BE1724773FDF4886BECC09773FC8
:104A7000DA0A87BE5BEF763FC1CC87BEC4D4763FEF
:104A8000938E88BE07BA763F505089BE249F763FEA
:104A9000F8118ABE1B84763F8AD38ABEEC68763FC3
:104AA00007958BBE974D763F6E568CBE1B32763F78
:104AB000C0178DBE7A16763FFCD88DBEB3FA753F0F
:104AC000229A8EBEC6DE753F325B8FBEB3C2753F83
:104AD0002C1C90BE7BA6753F10DD90BE1C8A753FD6
:104AE000DD9D91BE976D753F945E92BEED50753F12
:104AF000351F93BE1D34753FBFDF93BE2717753F2B
:104B000031A094BE0BFA743F8D6095BEC9DC743F32
:104B1000D22096BE62BF743F00E196BED5A1743F1D
:104B200017A197BE2284743F166198BE4966743FF0
:104B3000FE2099BE4B48743FCEE099BE272A743FB1
:104B400086A09ABEDD0B743F27609BBE6EED733F5F
:104B5000AF1F9CBED9CE733F20DF9CBE1FB0733FFA
:104B6000789E9DBE3F91733FB85D9EBE3972733F84
:104B7000DF1C9FBE0E53733FEEDB9FBEBE33733F01
:104B8000E59AA0BE4714733FC259A1BEACF4723F70
:104B90008718A2BEEBD4723F33D7A2BE04B5723FD2
:104BA000C595A3BEF894723F3F54A4BEC774723F2C
:104BB0009F12A5BE7054723FE5D0A5BEF433723F7C
:104BC000128FA6BE5213723F254DA7BE8CF2713FC5
:104BD0001F0BA8BE9FD1713FFEC8A8BE8EB0713F0B
:104BE000C486A9BE578F713F6F44AABEFB6D713F4B
:104BF0000102ABBE7A4C713F77BFABBED42A713F86
:104C0000D47CACBE0809713F153AADBE17E7703FC2
:104C10003CF7ADBE02C5703F49B4AEBEC6A2703F00
:104C20003A71AFBE6680703F102EB0BEE15D703F3E
:104C3000CBEAB0BE373B703F6BA7B1BE6718703F81
:104C4000EF63B2BE73F56F3F5820B3BE5AD26F3FC9
:104C5000A5DCB3BE1BAF6F3FD698B4BEB88B6F3F19
:104C6000EC54B5BE30686F3FE610B6BE83446F3F6C
:104C7000C3CCB6BEB0206F3F8488B7BEBAFC6E3FCF
:104C80002A44B8BE9ED86E3FB2FFB8BE5DB46E3F38
:104C90001EBBB9BEF88F6E3F6E76BABE6D6B6E3FAF
:104CA000A031BBBEBE466E3FB6ECBBBEEB216E3F35
:104CB000AFA7BCBEF2FC6D3F8B62BDBED5D76D3FCA
:104CC0004A1DBEBE93B26D3FEBD7BEBE2D8D6D3F6C
:104CD0006F92BFBEA1676D3FD54CC0BEF2416D3F24
:104CE0001E07C1BE1D1C6D3F48C1C1BE24F66C3FEE
:104CF000557BC2BE07D06C3F4435C3BEC5A96C3FCF
:104D000015EFC3BE5E836C3FC8A8C4BED45C6C3FC5
:104D10005C62C5BE24366C3FD21BC6BE500F6C3FD2
:104D200029D5C6BE58E86B3F628EC7BE3BC16B3FFC
:104D30007C47C8BEFB996B3F7700C9BE95726B3F3D
:104D400053B9C9BE0C4B6B3F1072CABE5E236B3F9A
:104D5000AE2ACBBE8CFB6A3F2CE3CBBE95D36A3F19
:104D60008B9BCCBE7BAB6A3FCA53CDBE3C836A3FB4
:104D7000EA0BCEBED95A6A3FEAC3CEBE52326A3F70
:104D8000CA7BCFBEA7096A3F8A33D0BED7E0693F4E
:104D90002AEBD0BEE4B7693FAAA2D1BECC8E693F50
:104DA000095AD2BE9165693F4811D3BE323C693F72
:104DB00067C8D3BEAE12693F647FD4BE07E9683FBF
:104DC0004136D5BE3CBF683FFDECD5BE4C95683F33
:104DD00099A3D6BE396B683F135AD7BE0341683FCB
:104DE0006B10D8BEA816683FA3C6D8BE2AEC673F92
:104DF000B97CD9BE87C1673FAD32DABEC196673F85
:104E000080E8DABED86B673F319EDBBECA40673FA1
:104E1000C153DCBE9915673F2E09DDBE45EA663FEA
:104E200079BEDDBECCBE663FA273DEBE3093663F68
:104E3000A928DFBE7167663F8DDDDFBE8E3B663F12
:104E40004F92E0BE880F663FEE46E1BE5EE3653FEF
:104E50006AFBE1BE10B7653FC4AFE2BEA08A653F02
:104E6000FA63E3BE0B5E653F0E18E4BE5431653F46
:104E7000FECBE4BE7904653FCB7FE5BE7BD7643FC4
:104E80007533E6BE59AA643FFBE6E6BE147D643F77
:104E90005D9AE7BEAC4F643F9C4DE8BE2122643F63
:104EA000B700E9BE73F4633FAEB3E9BEA1C6633F8A
:104EB0008166EABEAC98633F3019EBBE956A633FEA
:104EC000BBCBEBBE5A3C633F217EECBEFC0D633F87
:104ED0006330EDBE7BDF623F80E2EDBED7B0623F64
:104EE0007994EEBE1082623F4C46EFBE2653623F7D
:104EF000FBF7EFBE1A24623F85A9F0BEEAF4613FDA
:104F0000EA5AF1BE98C5613F290CF2BE2296613F74
:104F100043BDF2BE8A66613F386EF3BED036613F54
:104F2000071FF4BEF206613FB1CFF4BEF2D6603F78
:104F30003580F5BECFA6603F9330F6BE8976603FE0
:104F4000CBE0F6BE2146603FDC90F7BE9615603F91
:104F5000C840F8BEE9E45F3F8EF0F8BE19B45F3F89
:104F60002DA0F9BE27835F3FA54FFABE12525F3FC7
:104F7000F7FEFABEDB205F3F22AEFBBE81EF5E3F55
:104F8000275DFCBE05BE5E3F040CFDBE678C5E3F28
:104F9000BBBAFDBEA65A5E3F4A69FEBEC3285E3F4D
:104FA000B217FFBEBEF65D3FF3C5FFBE97C45D3FBF
:104FB000063A00BF4D925D3FFF9000BFE15F5D3F4D
:104FC000E4E700BF532D5D3FB53E01BFA3FA5C3F50
:104FD000739501BFD1C75C3F1CEC01BFDD945C3F02
:104FE000B14202BFC7615C3F329902BF8E2E5C3F67
:104FF0009FEF02BF34FB5B3FF84503BFB8C75B3F81
:105000003D9C03BF1A945B3F6DF203BF5A605B3F48
:10501000894804BF792C5B3F919E04BF75F85A3FC5
:1050200084F404BF50C45A3F624A05BF09905A3FF6
:105030002CA005BFA05B5A3FE2F505BF16275A3FDB
:10504000824B06BF6AF2593F0EA106BF9CBD593F75
:1050500086F606BFAD88593FE84B07BF9C53593FC2
:1050600036A107BF6A1E593F6FF607BF17E9583FC1
:10507000924B08BFA1B3583FA1A008BF0B7E583F79
:105080009BF508BF5348583F7F4A09BF7912583FE4
:105090004E9F09BF7FDC573F09F409BF63A6573F06
:1050A000AD480ABF2670573F3D9D0ABFC739573FDD
:1050B000B7F10ABF4803573F1C460BBFA7CC563F6A
:1050C0006B9A0BBFE595563FA5EE0BBF025F563FAF
:1050D000C9420CBFFE27563FD7960CBFD9F0553FAB
:1050E000D0EA0CBF93B9553FB33E0DBF2C82553F5C
:1050F00081920DBFA44A553F38E60DBFFB12553FC4
:10510000DA390EBF31DB543F658D0EBF47A3543FE4
:10511000DBE00EBF3B6B543F3B340FBF0F33543FBC
:1051200084870FBFC3FA533FB8DA0FBF55C2533F4E
:10513000D52D10BFC789533FDC8010BF1851533F96
:10514000CDD310BF4918533FA72611BF59DF523F97
:105150006B7911BF49A6523F19CC11BF186D523F50
:10516000B01E12BFC633523F307112BF54FA513FC6
:105170009AC312BFC2C0513FEE1513BF1087513FF3
:105180002A6813BF3D4D513F50BA13BF4A13513FD8
:105190005F0C14BF37D9503F585E14BF039F503F78
:1051A00039B014BFAF64503F040215BF3B2A503FD3
:1051B000B75315BFA8EF4F3F54A515BFF4B44F3FE9
:1051C000D9F615BF1F7A4F3F474816BF2B3F4F3FB9
:1051D0009F9916BF17044F3FDFEA16BFE4C84E3F42
:1051E000073C17BF908D4E3F188D17BF1C524E3F86
:1051F00012DE17BF89164E3FF52E18BFD5DA4D3F88
:10520000C07F18BF029F4D3F73D018BF10634D3F42
:105210000F2119BFFD264D3F947119BFCBEA4C3FBA
:1052200000C219BF79AE4C3F55121ABF08724C3FED
:1052300093621ABF78354C3FB8B21ABFC7F84B3FDC
:10524000C6021BBFF8BB4B3FBB521BBF097F4B3F86
:1052500099A21BBFFA414B3F5FF21BBFCC044B3FEF
:105260000C421CBF7FC74A3FA2911CBF138A4A3F12
:105270001FE11CBF874C4A3F84301DBFDC0E4A3FF4
:10528000D17F1DBF12D1493F06CF1DBF2993493F92
:10529000221E1EBF2155493F266D1EBFFA16493FEB
:1052A00012BC1EBFB3D8483FE50A1FBF4E9A483F05
:1052B0009F591FBFCA5B483F41A81FBF271D483FDA
:1052C000CBF61FBF65DE473F3B4520BF849F473F6E
:1052D000939320BF8560473FD2E120BF6721473FBE
:1052E000F92F21BF2AE2463F067E21BFCEA2463FCC
:1052F000FBCB21BF5463463FD71922BFBB23463F98
:10530000996722BF03E4453F43B522BF2DA4453F23
:10531000D30223BF3964453F4B5023BF2624453F6A
:10532000A99D23BFF5E3443FEEEA23BFA5A3443F75
:105330001A3824BF3763443F2C8524BFAB22443F37
:1053400025D224BF00E2433F041F25BF38A1433FBD
:10535000CB6B25BF5160433F77B825BF4C1F433F00
:105360000A0526BF29DE423F845126BFE89C423F02
:10537000E39D26BF895B423F2AEA26BF0B1A423FC4
:10538000563627BF70D8413F688227BFB796413F46
:1053900061CE27BFE154413F401A28BFEC12413F84
:1053A000056628BFDAD0403FB0B128BFA98E403F84
:1053B00041FD28BF5C4C403FB84829BFF009403F41
:1053C000159429BF67C73F3F57DF29BFC0843F3FC0
:1053D000802A2ABFFC413F3F8E752ABF1BFF3E3FFC
:1053E00082C02ABF1BBC3E3F5B0B2BBFFF783E3FFA
:1053F0001B562BBFC5353E3FBFA02BBF6EF23D3FB6
:105400004AEB2BBFF9AE3D3FB9352CBF676B3D3F33
:105410000F802CBFB8273D3F49CA2CBFECE33C3F6F
:1054200069142DBF03A03C3F6F5E2DBFFC5B3C3F6A
:1054300059A82DBFD9173C3F29F22DBF98D33B3F28
:10544000DE3B2EBF3B8F3B3F78852EBFC14A3B3FA3
:10545000F7CE2EBF29063B3F5B182FBF75C13A3FE1
:10546000A5612FBFA47C3A3FD3AA2FBFB7373A3FDD
:10547000E6F32FBFACF2393FDE3C30BF85AD393F9C
:10548000BB8530BF4268393F7CCE30BFE122393F17
:10549000221731BF65DD383FAD5F31BFCB97383F55
:1054A0001DA831BF1652383F71F031BF430C383F51
:1054B000AA3832BF55C6373FC78032BF4A80373F10
:1054C000C9C832BF233A373FAF1033BFDFF3363F8F
:1054D0007A5833BF7FAD363F29A033BF0467363FCC
:1054E000BCE733BF6C20363F342F34BFB8D9353FCB
:1054F0008F7634BFE792353FCFBD34BFFB4B353F8E
:10550000F30435BFF304353FFB4B35BFCFBD343F0C
:10551000E79235BF8F76343FB8D935BF342F343F4B
:105520006C2036BFBCE7333F046736BF29A0333F4A
:105530007FAD36BF7A58333FDFF336BFAF10333F0E
:10554000233A37BFC9C8323F4A8037BFC780323F8E
:1055500055C637BFAA38323F430C38BF71F0313FD0
:10556000165238BF1DA8313FCB9738BFAD5F313FD2
:1055700065DD38BF2217313FE12239BF7CCE303F95
:10558000426839BFBB85303F85AD39BFDE3C303F17
:10559000ACF239BFE6F32F3FB7373ABFD3AA2F3F5C
:1055A000A47C3ABFA5612F3F75C13ABF5B182F3F5E
:1055B00029063BBFF7CE2E3FC14A3BBF78852E3F21
:1055C0003B8F3BBFDE3B2E3F98D33BBF29F22D3FA5
:1055D000D9173CBF59A82D3FFC5B3CBF6F5E2D3FE8
:1055E00003A03CBF69142D3FECE33CBF49CA2C3FEC
:1055F000B8273DBF0F802C3F676B3DBFB9352C3FAF
:10560000F9AE3DBF4AEB2B3F6EF23DBFBFA02B3F33
:10561000C5353EBF1B562B3FFF783EBF5B0B2B3F74
:105620001BBC3EBF82C02A3F1BFF3EBF8E752A3F78
:10563000FC413FBF802A2A3FC0843FBF57DF293F3C
:1056400067C73FBF1594293FF00940BFB848293FBD
:105650005C4C40BF41FD283FA98E40BFB0B1283F00
:10566000DAD040BF0566283FEC1241BF401A283F00
:10567000E15441BF61CE273FB79641BF6882273FC3
:1056800070D841BF5636273F0B1A42BF2AEA263F41
:10569000895B42BFE39D263FE89C42BF8451263F81
:1056A00029DE42BF0A05263F4C1F43BF77B8253F7E
:1056B000516043BFCB6B253F38A143BF041F253F3B
:1056C00000E243BF25D2243FAB2244BF2C85243FB8
:1056D000376344BF1A38243FA5A344BFEEEA233FF3
:1056E000F5E344BFA99D233F262445BF4B50233FEC
:1056F000396445BFD302233F2DA445BF43B5223FA4
:1057000003E445BF9967223FBB2346BFD719223F19
:10571000546346BFFBCB213FCEA246BF067E213F4E
:105720002AE246BFF92F213F672147BFD2E1203F40
:10573000856047BF9393203F849F47BF3B45203FF1
:1057400065DE47BFCBF61F3F271D48BF41A81F3F5F
:10575000CA5B48BF9F591F3F4E9A48BFE50A1F3F8B
:10576000B3D848BF12BC1E3FFA1649BF266D1E3F74
:10577000215549BF221E1E3F299349BF06CF1D3F19
:1057800012D149BFD17F1D3FDC0E4ABF84301D3F7F
:10579000874C4ABF1FE11C3F138A4ABFA2911C3F9E
:1057A0007FC74ABF0C421C3FCC044BBF5FF21B3F7C
:1057B000FA414BBF99A21B3F097F4BBFBB521B3F16
:1057C000F8BB4BBFC6021B3FC7F84BBFB8B21A3F6E
:1057D00078354CBF93621A3F08724CBF55121A3F7E
:1057E00079AE4CBF00C2193FCBEA4CBF9471193F50
:1057F000FD264DBF0F21193F10634DBF73D0183FD9
:10580000029F4DBFC07F183FD5DA4DBFF52E183F20
:1058100089164EBF12DE173F1C524EBF188D173F20
:10582000908D4EBF073C173FE4C84EBFDFEA163FDE
:1058300017044FBF9F99163F2B3F4FBF4748163F56
:105840001F7A4FBFD9F6153FF4B44FBF54A5153F8B
:10585000A8EF4FBFB753153F3B2A50BF0402153F77
:10586000AF6450BF39B0143F039F50BF585E143F20
:1058700037D950BF5F0C143F4A1351BF50BA133F82
:105880003D4D51BF2A68133F108751BFEE15133F9E
:10589000C2C051BF9AC3123F54FA51BF3071123F78
:1058A000C63352BFB01E123F186D52BF19CC113F04
:1058B00049A652BF6B79113F59DF52BFA726113F4E
:1058C000491853BFCDD3103F185153BFDC80103F50
:1058D000C78953BFD52D103F55C253BFB8DA0F3F0C
:1058E000C3FA53BF84870F3F0F3354BF3B340F3F7E
:1058F0003B6B54BFDBE00E3F47A354BF658D0E3FAB
:1059000031DB54BFDA390E3FFB1255BF38E60D3F8D
:10591000A44A55BF81920D3F2C8255BFB33E0D3F27
:1059200093B955BFD0EA0C3FD9F055BFD7960C3F7D
:10593000FE2756BFC9420C3F025F56BFA5EE0B3F84
:10594000E59556BF6B9A0B3FA7CC56BF1C460B3F45
:10595000480357BFB7F10A3FC73957BF3D9D0A3FBC
:10596000267057BFAD480A3F63A657BF09F4093FE9
:105970007FDC57BF4E9F093F791258BF7F4A093FCE
:10598000534858BF9BF5083F0B7E58BFA1A0083F66
:10599000A1B358BF924B083F17E958BF6FF6073FB6
:1059A0006A1E59BF36A1073F9C5359BFE84B073FBA
:1059B000AD8859BF86F6063F9CBD59BF0EA1063F74
:1059C0006AF259BF824B063F16275ABFE2F5053FE0
:1059D000A05B5ABF2CA0053F09905ABF624A053F01
:1059E00050C45ABF84F4043F75F85ABF919E043FD7
:1059F000792C5BBF8948043F5A605BBF6DF2033F5F
:105A00001A945BBF3D9C033FB8C75BBFF845033F9B
:105A100034FB5BBF9FEF023F8E2E5CBF3299023F8B
:105A2000C7615CBFB142023FDD945CBF1CEC013F2B
:105A3000D1C75CBF7395013FA3FA5CBFB53E013F80
:105A4000532D5DBFE4E7003FE15F5DBFFF90003F86
:105A50004D925DBF063A003F97C45DBFF3C5FF3E60
:105A6000BEF65DBFB217FF3EC3285EBF4A69FE3E69
:105A7000A65A5EBFBBBAFD3E678C5EBF040CFD3EFE
:105A800005BE5EBF275DFC3E81EF5EBF22AEFB3EE2
:105A9000DB205FBFF7FEFA3E12525FBFA54FFA3E12
:105AA00027835FBF2DA0F93E19B45FBF8EF0F83E8B
:105AB000E9E45FBFC840F83E961560BFDC90F73E52
:105AC000214660BFCBE0F63E897660BF9330F63E5C
:105AD000CFA660BF3580F53EF2D660BFB1CFF43EB1
